:02000000FE29D7
:10036A00B921080013150800603090000800C10088
:10037A004108C000C00DC00D1F084006E339400601
:10038A009F001F149F149F18C8291E0808004008C0
:10039A00C20005300310C20DFF3E031DCF29031012
:1003AA00420D94004108C3004008C2000310C30C68
:1003BA00C20C0310C30CC20C420895000800B521F8
:1003CA000610861006118714B7210230BC21C4001A
:1003DA00C5010310C40DC50D0310C40DC50D440895
:1003EA00C6004508C7004708C1004608C000CC211E
:0603FA00EA298301E42959
:02400E00E03D93
:00000001FF
